:04000000DCEF01F040
:08000800046ED8CF05F0E0CF33
:1000100006F00001E9CF0CF0EACF07F0E1CF08F0DD
:10002000E2CF09F0D9CF0AF0DACF0BF0F3CF12F01C
:10003000F4CF13F0FACF14F000C00EF001C00FF0AF
:1000400002C010F003C011F09DA02AEF00F09EB096
:1000500051EF00F0F2A830EF00F0F2B285EF00F0BF
:100060000EC000F00FC001F010C002F011C003F08C
:100070000CC0E9FF07C0EAFF078E08C0E1FF09C016
:10008000E2FF0AC0D9FF0BC0DAFF12C0F3FF13C0B2
:10009000F4FF14C0FAFF045006C0E0FF05C0D8FF0B
:1000A00010000B0ECF6EDC0ECE6E182AD8B4192AB3
:1000B00018500A0807E1195205E1196A186A1A2A44
:1000C000D8B41B2A9E9030EF00F021502302F3CFCA
:1000D00001F0F4CF00F02402F35000262250230256
:1000E000F3500020026E000C0900F5520DE0F6CF2F
:1000F00021F0F7CF22F0F5509EA8FED7AD6E21C0BB
:10010000F6FF22C0F7FFF0D7000C95908C809592F7
:100110008C9295948C94530E006E002EFED795868B
:1001200083A612D0310E9EA8FED7AD6E17C022F066
:1001300016C021F0246A0A0E236EC7DF010E0124C7
:10014000166E000E0220176E958883A812D0340E0A
:100150009EA8FED7AD6E17C022F016C021F0246A0B
:100160000A0E236EB2DF040E0124166E000E02206A
:10017000176E958A83AA12D0370E9EA8FED7AD6E51
:1001800017C022F016C021F0246A0A0E236E9DDFEC
:10019000070E0124166E000E0220176E95928C82B7
:1001A00095908C9095948C94530E006E002EFED7F3
:1001B000958683A612D0320E9EA8FED7AD6E17C0CC
:1001C00022F016C021F0246A0A0E236E7EDF020E92
:1001D0000124166E000E0220176E958883A812D097
:1001E000350E9EA8FED7AD6E17C022F016C021F0C6
:1001F000246A0A0E236E69DF050E0124166E000EB6
:100200000220176E958A83AA12D0380E9EA8FED7B8
:10021000AD6E17C022F016C021F0246A0A0E236EBC
:1002200054DF080E0124166E000E0220176E958C06
:1002300083AC10D0300E9EA8FED7AD6E17C022F052
:1002400016C021F0246A0A0E236E3FDF02C017F0A9
:1002500001C016F095948C8495908C9095928C9218
:10026000530E006E002EFED7958683A612D0330E55
:100270009EA8FED7AD6E17C022F016C021F0246AEA
:100280000A0E236E22DF030E0124166E000E0220DA
:10029000176E958883A812D0360E9EA8FED7AD6E35
:1002A00017C022F016C021F0246A0A0E236E0DDF5B
:1002B000060E0124166E000E0220176E958A83AA80
:1002C00012D0390E9EA8FED7AD6E17C022F016C010
:1002D00021F0246A0A0E236EF8DE090E0124166E40
:1002E000000E0220176E958C83AC3BD00A0E9EA8A0
:1002F000FED7AD6E0D0E9EA8FED7AD6E165021082E
:100300000CE117520AE17C0EF66E030EF76EECDE7E
:100310001B6A1A6A1C80176A166A165080080BE15D
:100320001750060808E18E0EF66E030EF76EDCDE3F
:100330001C90176A166A1650210802E1175211E044
:100340001650800803E1175006080BE0165202E130
:10035000175207E0A20EF66E030EF76EC5DE176A9F
:10036000166A95908C8095928C8295948C84530E0D
:10037000006E002EFED7F29230EF00F0416C6172F9
:100380006D6520616374697665650A0D0000416CD6
:1003900061726D6520646573616374697665650A71
:1003A0000D0053616973696520696E636F727265D0
:1003B000637465210A0D0000F86AD09E078EEA6A10
:1003C000E96A810EAF6EA60EAC6E900EAB6EC18068
:1003D000C182C184C196C180C182C184C196C19CC1
:1003E000C29CC29EC19EC2809698C69A949A9488D6
:1003F0009496010EC66E000EC76ED190800ED56E1B
:10040000B50ECD6E000ECA6E000ECB6E9D80F288CA
:10041000C00EF21295908C8095928C8295948C846B
:100420001CB232D0938681B602D01CB00FD0938814
:1004300081B802D01CB00AD0938A81BA02D01CB015
:1004400005D0938C81BC05D01CA003D01B6A1A6A0E
:100450001C82938281A203D0938481B411D01CA00A
:100460000FD01B5205E11A500A0802E394928B92B6
:100470001B5203E11A500A0803E21B6A1A6A1C8223
:100480001CB002D094928B921CA214D01B5207E194
:100490001A500A0804E31CA002D094928B821B52CB
:1004A00005E11A500A0802E31CB004D094928B9222
:0804B0001C901C92B5D703005B
:020000040030CA
:0E00000000220D0E000181000FC00FE00F4026
:00000001FF
;PIC18F452
;CRC=3093  CREATED="20-févr.-15 18:45"
